S00E00005A334C696768742E73333761
S3150800600000100020657D000819EA00081DEA00084E
S315080060100116040821EA000829EA000801160408FE
S3150800602001160408011604080116040801160408D6
S315080060302DEA0008F44A05080116040801160408A2
S3150800604061820008011604080116040801160408EE
S3150800605001160408011604080116040801160408A6
S315080060600116040801160408011604082574000818
S31508006070B70A0408011604080116040801160408DC
S315080060800116040801160408011604080116040876
S3150800609001160408B18B0008011604080116040845
S315080060A001160408B18D00088D8D00080116040834
S315080060B001160408ED840208798F0208F393040890
S315080060C0EF93040821870208FF930408F79304084E
S315080060D0518F0208FB930408B98F0208259002081D
S315080060E0011604080116040839EB0008011604080D
S315080060F0992E040801160408011604080116040856
S31508006100011604083D6E0008011604080116040865
S3150800611001160408011604080116040801160408E5
S3150800612001160408011604080116040801160408D5
S3150800613001160408011604080116040801160408C5
S31508006140011604080116040801160408F1330408A8
S31508006150A975020801160408F3900408F9900408C2
S315080061600116040801160408011604080116040895
S31508006170013800D0FCE7704710B528B30822164B43
S31508006180DA60164B1A78012AFCD100240179144AE0
S315080061901C7032F811309FED137A9BB207EE903AD5
S315080061A0F8EE677AC7EE877A22F8114017EE900A5A
S315080061B039F010FA06A3D3E9002339F063FA39F067
S315080061C043FD00EE100A10BDBFEE000AFBE700BF54
S315080061D06666666666660A4000400059E753002010
S315080061E06C4D002000F07F452DE9F04F4FF0FF0B76
S315080061F0C9B09A460DF11B099DF8503108AFCDF884
S315080062000C90CDF808B001970593038904460093CE
S3150800621083790E46904641888288407817F0D2F8EE
S31508006220054650B10090A388002062883A4917F0C5
S315080062302FFC284649B0BDE8F08F99F800003FF0DA
S31508006240E2F838B12846A3886288344917F020FC5A
S315080062508D25EEE75A46394699F800003FF0A2F830
S315080062608346002851D0529B1BB1BDF84C31984249
S315080062704BD8002399F800900793A9F14102012A07
S315080062805FFA8BF123D838460139254ADFF898C0DA
S315080062905FFA81FE734513DB059B04210792C3B998
S315080062A007AF18221F489FED1A7B02FB06042046FB
S315080062B00A460830394684ED027B46F055FC11E063
S315080062C010F8011F013351400CFB01F2E2E7059B70
S315080062D033B123464A463846009612F0E3F9A8E752
S315080062E00829DED9B8F1000F01D088F80090BAF174
S315080062F0000F01D0AAF800B0529B002B99D05A463D
S31508006300184608A946F030FC93E7012591E700BF37
S3150800631000000000000000007B910508AC9105080C
S31508006320C59D1C817819002093010001000000001A
S315080063302DE9F04F93B0CDE90A32DDE91C530E93EF
S3150800634053EC102BCDE90801104619468DED060BC6
S315080063501E9E39F0FFFB80B1DDE906014FF0FF32E2
S31508006360C54B39F01FFC40B9DDE906014FF0FF3295
S315080063706FF4801339F0F8FB70B1DDE908019DED83
S31508006380060B0E9B1E96CDE91C53DDE90A3213B0A7
S31508006390BDE8F04F00F088B90022DDE906010023C8
S315080063A039F0E2FB002800F03381DDE906A303F1AA
S315080063B0004BCBF30A5016F48063A0F2FF3008BFF7
S315080063C006250F9339F0F4F89BA3D3E9002339F097
S315080063D059F99BA3D3E9002338F09EFFCBF31304A6
S315080063E0894644F07F5180460022A44B504641F42A
S315080063F0401138F08FFF94A3D3E9002339F042F90E
S3150800640002460B464046494638F086FF39F0D4FB2B
S31508006410044639F0CDF88EA3D3E900238046894691
S3150800642039F030F90022964B38F076FF39F0C4FB84
S3150800643089A3D3E9002307464946404639F022F99D
S3150800644080463846894639F0B3F885A3D3E9002350
S3150800645039F018F902460B464046494638F05AFFC5
S3150800646002460B46CDE90C2339F00CF9DDE90C237D
S31508006470804689461046194638F04EFF0022CDE977
S315080064801001804B4046494639F026FA00227E4BD9
S3150800649038F042FF02460B464046494639F01CFA98
S315080064A000227A4B38F038FF02460B4640464946EA
S315080064B039F012FADDE90C238046894600204FF0B0
S315080064C0804138F027FF02460B464046494638F0D9
S315080064D023FF02460B46DDE9100139F0FDF907F204
S315080064E0FF3700226A4B38F017FF00223B0539F0C8
S315080064F0C9F852465B468046894639F053FB002860
S3150800650040F08980CDE90C8904F16303C72B34BFB9
S315080065100427052731051BD553A3D3E90023504685
S31508006520594639F035FB00287FD051A3D3E900231B
S315080065305046594639F018FB002876D00027A54260
S31508006540C6BF2C1B04F1FF3500253C4646F4806681
S315080065500E9B9F422CBF4FF00008A3EB070816F0CE
S31508006560020903D0002F18BF4FF000083CB1DDE93F
S315080065700C235046594639F0AFF982468B46DDE979
S3150800658006010022002339F0EFFA10B10BF100439F
S315080065909B46DDE9080126F40063CDE90183DDE9C0
S315080065A00A324BEC10AB009500F07EF802465FB35A
S315080065B0DDE9091316F0200F00F10105089E0CBF4E
S315080065C065204520B047DDE908010523002205932B
S315080065D00A23002CCDE9023207F1FF374FEAD473BC
S315080065E0B8BF64422A46019304970A9B009441F077
S315080065F051FD0246B9F1000F06D00B9BC41A0B9B3E
S315080066001A190E9BA34245D8104613B0BDE8F08F61
S31508006610DDE906ABCDE60022404649461A4B39F07D
S315080066205BF9013CCDE90C016EE7002D90D00F9B7C
S31508006630002B8DD0013D8BE7FB799F501344D33F48
S31508006640B3C8608B288AC63F61436F63A787D23F6A
S3150800665071A379094F930A401655B5BBB16B024031
S31508006660EF39FAFE422EE63F2D431CEBE2361A3F7F
S315080066700000000080842E41FFFFEF7F0000F83FF6
S315080066800000E03F00002C400000244000001840B5
S315080066900000F03F2020DDE90913089DA8470134D2
S315080066A0ADE700BF000000002DE9F04F5BEC10AB32
S315080066B097B0CDE90501DDE92057CDE90723504616
S315080066C052465B465946229E39F044FA70B903236E
S315080066D0CDE902760193B04B0093DDE90501DDE9CA
S315080066E0072341F0F7FB17B0BDE8F08F4FF0FF32F4
S315080066F06FF480135046594639F036FA28B1042308
S31508006700CDE902760193A54BE6E74FF0FF325046F6
S315080067105946A34B39F046FA68B1A24A06F0040373
S31508006720002B08BF0322A04B1CBF13460422CDE949
S3150800673002760192D0E7504693A3D3E9002359463F
S3150800674039F030FA38B992A3D3E9002350465946AE
S3150800675039F00AFA68B1DDE90723DDE905014BECF2
S3150800676010ABCDE92176209517B0BDE8F04FFFF7BD
S31508006770DFBD002200235046594639F0F5F90028B6
S3150800678000F09A805B4652460020002138F0C2FD90
S31508006790012382468B46099316F4806400F08E80A6
S315080067A0092D40F28E80002430210EABA5F1090296
S315080067B00134202C03F8011BA5EB040901D09442EF
S315080067C0F6D15946504639F0F7F9784B054603EBAA
S315080067D0C90393ED007B8DED0A7B38F0E9FE02468E
S315080067E00B465046594638F095FDDDE90A2338F040
S315080067F049FF02460B46CDE90C2339F005FA8046D7
S3150800680038F0C6FE02460B46DDE90C0138F082FD7B
S3150800681002460B46CDE90C230022654B39F0C2F936
S31508006820002851D008F10108404638F0B1FE02466A
S315080068300B46DDE90A0139F0A1F910B14FF000085D
S315080068400135B9F1000F50D1284638F0B1FE02469D
S315080068500B465046594638F05DFD0022544B80469B
S31508006860894639F081F930B1002240464946504BF5
S3150800687039F098F910B1E80700D501350A210EABB1
S315080068801A19202C0AD095FBF1F001FB105530356A
S3150800689002F8015B013405460028F2D106F003022E
S315080068A0012A57D1002F55D0099A12B916F00C0FA4
S315080068B000D0013F302245E009906DE74FF0060908
S315080068C07FE7A94600247CE70022DDE90C01384B66
S315080068D039F04AF90028B4D1B8F1000F02D018F0FF
S315080068E0010FAED008F10108ABE70A210EAB23442D
S315080068F0202C0ED0B8FBF1F001FB1082B8F1090F7D
S3150800690002F1300209F1FF3904F1010403F8012B01
S3150800691011D83021A1440EAA202CAFD0A14504F1EC
S3150800692001030AD11C4609F158030DEB03092E236E
S3150800693009F8203CA2E78046DAE7A1541C46EBE7B3
S315080069401A550134A74205D9202CF9D1CDE902768A
S315080069500194C1E6202CF9D0099A3AB12D2104F107
S3150800696058026A4402F8201C0134EFE7710704D57F
S3150800697004F158022B216A44F4E73207E6D504F1FC
S31508006980580220216A44EDE70000000065CDCD419C
S315080069900000000065CDCDC16BBF05086FBF0508B7
S315080069A0FFFFEF7F62BF050867BF050878BF0508C8
S315080069B00000E03F0000000070B58EB02C220021D8
S315080069C003A846F0AAF864234FF002320893CDE9EB
S315080069D005230B2301218DF83430514B8DF8101007
S315080069E01B88D80700F19580084623F067FE0A221F
S315080069F04C4B4D491A704FF428734C48ADF8123079
S31508006A0022F0CEFB4A4C206020B94FF41171494858
S31508006A1007F000FF0521206842F0C6F820B14FF4C0
S31508006A201571444807F0F6FE206800F007FD424B52
S31508006A302068196842F02EF90C2524F057FD6843A2
S31508006A40099024F053FD68430DEB05010790206873
S31508006A501CF0DAFC20B140F26921364807F0DAFE6C
S31508006A6000223649206842F092F920B140F26B21A3
S31508006A70304807F0CFFE40F20353314D314E2B809C
S31508006A80052396F90000AB707F2801D123F0E0FFBB
S31508006A903378EB7024F02AFD00EB80008000A88094
S31508006AA024F024FD0023C0004FF0FF31E880AB60DE
S31508006AB04FF0FF3018A3D3E9002324F027F8224922
S31508006AC0206842F03CFD206802A942F03AF920B15C
S31508006AD04FF42971174807F09DFE042220680DEB34
S31508006AE0020142F0C5F8042804D040F2A721114853
S31508006AF007F090FE01A9012042F0E1FF07F0D0FF60
S31508006B00012024F083FF3BF07AF824F0A9FF23F054
S31508006B1059FE0EB070BD00BF0A0020FF42030000F8
S31508006B205C530020365E0020E5A6020838130020D4
S31508006B30104A00209AFE050838110020445E0020FD
S31508006B40044A00204217002085A802080348044B7F
S31508006B50834202D0034B03B1184770472819002017
S31508006B602819002000000000064B0749C91A891099
S31508006B7048BF0131491003D0044B0BB101481847EF
S31508006B80704700BF281900202819002000000000BF
S31508006B9010B5064C237843B9FFF7D8FF044B13B159
S31508006BA00448AFF300800123237010BDDE53002094
S31508006BB000000000A802060808B5054B1BB10549E8
S31508006BC00548AFF30080BDE80840FFF7CDBF00BF1A
S31508006BD000000000B81D0020A8020608A3F5803AA8
S31508006BE0704700BF174B002B08BF134B9D46FFF796
S31508006BF0F5FF00218B460F461348144A121A45F032
S31508006C008CFF0E4B002B00D098470D4B002B00D065
S31508006C1098470020002104000D000D48002802D0E6
S31508006C200C48AFF3008039F015FE2000290039F032
S31508006C309CFE39F0F1F900BF0000080000000000D2
S31508006C40000000000010002028190020B85E00206F
S31508006C50000000000000000010B50E4C204600F0B1
S31508006C607FF900F0ABFA08B10323237163790A4A66
S31508006C70012B0AD1032323710123BDE810401370A9
S31508006C8002210422032003F083BD2379012BF3D8C4
S31508006C900023F2E7E0530020DF530020034A11687F
S31508006CA0016091889279818082717047E053002053
S31508006CB0F0B50368064693B0002B40F08A80092297
S31508006CC00271544A10461479002C7AD10122337184
S31508006CD003EB8303C41831602271C2540A784B78D7
S31508006CE0083243EA02134C4A63701378013313706F
S31508006CF04A4D08AC0FCD0FC40FCD0FC495E803005D
S31508006D0000274FF4403384E80300022401212A2097
S31508006D100393CDE905770797ADF810708DF81270D3
S31508006D2002F01EFB02214FF4B06002F00DFF3A4656
S31508006D303B493C488DF8174003F0F2FF03238DF8D2
S31508006D40243040F6E4433A4637498DF819000B9348
S31508006D5000903B4633488DF821708DF8234003F0A8
S31508006D60F9FF07238DF80E3001230A9008AA2D484B
S31508006D7005A98DF80D3004F029F8264A294803A9F3
S31508006D8003F046FF33681A78284B32BBD3F8202322
S31508006D9042F00102C3F82023D3F8202342F48032BC
S31508006DA0C3F82023224B23491E4A5962936A43F4A7
S31508006DB0807393624FF400321F4BC3F884215A60E4
S31508006DC005E00133082B02F105027FF47CAF13B00E
S31508006DD0F0BD0379092B8BD1F9E7012A0CD1D3F839
S31508006DE0242342F00102C3F82423D3F8242342F4CF
S31508006DF08032C3F82423D5E7D3F8282342F00102CA
S31508006E00C3F82823D3F8282342F48032C3F828236A
S31508006E10C8E700BF7C160020E8530020A0CD040870
S31508006E20002D3101004000598096980000C003509B
S31508006E30006000598F330F8000E100E037B5104D30
S31508006E40104CD5F888301B0708D101220E4B1A7052
S31508006E504FF480720D4B5A6203B030BD294668461E
S31508006E603AF0E4FD9DF80420BDF8003024F812300D
S31508006E7034F812309BB21B019BB224F81230E0E7BB
S31508006E80004000596C4D0020E7530020006000596F
S31508006E9007B5134B01A91A785B7812488DF80420B8
S31508006EA08DF80530FFF704FF00F0FEFD01213A20BA
S31508006EB002F056FA022201231046032103F068FC69
S31508006EC0012302221846114603F062FC012302221E
S31508006ED01946104603F05CFC03B05DF804FB00BFDE
S31508006EE0CC160020D01D0020034A1378B3FA83F38A
S31508006EF05B091370704700BFEB53002038B50321B8
S31508006F000446022039F062FD05460221012039F0C7
S31508006F105DFD012D0E490F4A07D191F9003023B9BD
S31508006F201378B3FA83F35B091370137801280D708D
S31508006F30094A0A49637107D191F9003023B91378D0
S31508006F40B3FA83F35B09137013780870A37138BD1D
S31508006F50EA530020EC530020EB530020E9530020AD
S31508006F60002313B5044601A96846CDE9003300F0AD
S31508006F70E3FD48B94FF47A72009BB3FBF2F3A370B2
S31508006F80019BB3FBF2F363700C48FFF7F5F8FCEED0
S31508006F90C07A17EE903AE370094B2046D3F8A4302E
S31508006FA06FEA530303F001032370FFF7A7FF204698
S31508006FB002B0BDE8104039F0E4BC00BFCC16002092
S31508006FC000C0035008B507F0F7FDFF2104480BF091
S31508006FD07DFCBDE808404FF47A7126F08FBB00BFF0
S31508006FE0D81D002010B5044670B9FF2307491A4674
S31508006FF007480BF031FCFF2105480BF067FC2146DA
S31508007000BDE8104026F07ABB10BD00BFC56F00086A
S31508007010D81D002030B52B4889B015F073FC02A89E
S31508007020FFF73CFE284D029B284C2B60BDF80C3020
S315080070302749AB8063789DF80E200133637070236F
S31508007040E3706B78012A2371AB78AA716371EB78C8
S31508007050A3712B78E3712B7923721E4BCDE90513A7
S315080070604FF00003ADF81C308DF81E3005D1FFF740
S315080070703BFF43F0DBFC10F089FC3EF024F941F2BB
S315080070804533154D98421EBF2B6801332B602B687C
S31508007090042B03DD10F07AFC00232B6000210A2361
S315080070A00846009405AA3DF006FF034638B10020BD
S315080070B02A680A4916F0ECFC2B6801332B6009B0E4
S315080070C030BD00BFED530020F5530020CE1600203A
S315080070D004010F0001014011181E0020C8CD040844
S315080070E008B5FFF797FFFF2104480BF0EFFBBDE853
S315080070F008404FF4FA6126F001BB00BFF81D0020D6
S3150800710013462DE9F04100B12AB922490020BDE80D
S31508007110F04116F0BDBC0288B2F5827F37D14288AD
S315080071200F2A34D14279012A31D1052928D193F879
S3150800713000805F78002018499D78DC781E7916F063
S31508007140A7FC42460020154916F0A2FC3A46002044
S31508007150134916F09DFC2A460020124916F098FCA1
S3150800716022460020104916F093FC324600200F49AB
S3150800717016F08EFC7B2D01D10D4B1C60BDE8F0810D
S315080071800A46BDE8F04100200A4916F081BC0A49C2
S31508007190BCE700BFD5CD0408F1CD040803CE04082A
S315080071A00ECE040819CE040824CE04082FCE0408EF
S315080071B01C1E00203ACE040858CE0408014B186855
S315080071C0704700BF1C1E002010B500200B4916F0A2
S315080071D05FFCFF230A4C1A4620460A490BF03CFB83
S315080071E0FF2120460BF072FB4FF4FA6126F086FA6F
S315080071F043F01CFCBDE8104010F0C8BB89CE04085B
S31508007200F81D0020E170000830B50A4C0A4B2268C8
S315080072100A4D1A600A4B85B02B600A4B019306F09B
S3150800722073FC2B68029001A9206803933BF0ABFA24
S3150800723005B030BDA8100020902C00208C2C002012
S315080072409C100020552F0508014B18683BF0AFBA73
S31508007250A810002038B506F057FC0446064D2B68E2
S31508007260D3F8B00206F044FC28683BF0B3FA20468F
S31508007270BDE8384006F03CBCA810002010B5274CE5
S3150800728002F0B0FA02F03EFC236F23F0070343F046
S31508007290030323673AF01AFB214B00209B6ADB01A4
S315080072A05EBF4FF480321F4B9A62D4F8203123F028
S315080072B0070343F00203C4F82031D4F8283123F039
S315080072C0070343F00203C4F82831D4F8403123F009
S315080072D0030343F00203C4F84031D4F8603123F0C5
S315080072E0030343F00203C4F86031D4F8403223F0B4
S315080072F0030343F00203C4F84032D4F8003223F003
S31508007300070343F00203C4F80032D4F8083223F026
S31508007310070343F00203C4F8083210BD008000508A
S315080073200040005A0060005A08B53A20012102F0D0
S3150800733017F8BDE80840014801F058B9AC1000201C
S3150800734030B5254D9DB008AC0FCD0FC495E80F009C
S3150800735084E80F002A2200210DF1460045F0DDFBE6
S315080073601E4B0124109356231293052315930623C7
S31508007370179303230E2200210DF112008DF84540C4
S315080073808DF8443045F0C9FB4FF47020144B02A920
S31508007390CDE902030B238DF810300C238DF811303C
S315080073A0104B08AA0593202306930F4B0F4800930A
S315080073B010AB8DF81D4006F023FC04469DF81E30E0
S315080073C04FF4E130002B0CBF032100213AF080F87E
S315080073D020461DB030BD00BF343005080000015BF3
S315080073E03C00015BFC530020DC2000204C210020DF
S315080073F0022905D8034B1B68186808B1436A184761
S31508007400704700BFC410002008B50449044807F0B7
S31508007410B7FEBDE80840FFF793BF00BFC8100020BD
S315080074207021002001483BF0ADBD00BF4C21002073
S31508007430014B1A6A186810474C21002008B51CF041
S3150800744011F80022014B1A7008BD00BF1C54002019
S3150800745001483AF079B900BF5430050801483AF0B6
S31508007460B4B900BF6C3005081FB50849034608685B
S31508007470097902AA02908DF80C10009205210022C3
S3150800748001200AF085FB05B05DF804FB8430050889
S315080074901FB50A4A0346106802A902909088927995
S315080074A0ADF80C008DF80E20009144224FF440717F
S315080074B001200AF06DFB05B05DF804FB8A3005086B
S315080074C01FB5084903460868097902AA02908DF88B
S315080074D00C1000920521422201200AF059FB05B042
S315080074E05DF804FB923005081FB50849034608688D
S315080074F0097902AA02908DF80C1000920521402203
S3150800750001200AF045FB05B05DF804FB8430050848
S315080075101FB5074A0346039203AA00924FF4407127
S31508007520412201200AF034FB05B05DF804FB00BFD8
S31508007530010221211FB5094903460868097902AAEB
S3150800754002908DF80C1000924FF4407140220120F1
S315080075500AF01EFB05B05DF804FB00BF983005086D
S315080075601FB5094903460868097902AA02908DF8E9
S315080075700C1000924FF44071432201200AF008FBD8
S3150800758005B05DF804FB00BF983005081FB509492A
S3150800759003460868097902AA02908DF80C10009231
S315080075A04FF44071422201200AF0F2FA05B05DF864
S315080075B004FB00BF8C3005081FB5064A0346039234
S315080075C003AA00920122082110460AF0E1FA05B042
S315080075D05DF804FB010121211FB5074A0346039202
S315080075E003AA00924FF44071082201200AF0D0FA4B
S315080075F005B05DF804FB00BF121221211FB5094A28
S315080076000346106892880290ADF80C2002AA0092F0
S315080076104FF440714B2201200AF0BAFA05B05DF822
S3150800762004FB00BF9E3005081FB5074A03460392B0
S3150800763003AA009201224FF4407110460AF0A8FAF4
S3150800764005B05DF804FB00BF010121211FB5074AFB
S315080076500346039203AA00924FF4407104220120C4
S315080076600AF096FA05B05DF804FB00BF0101212176
S315080076701FB5094903460868097902AA02908DF8D8
S315080076800C1000924FF44071072201200AF080FA8C
S3150800769005B05DF804FB00BF9F3005081FB5074A13
S315080076A00346039203AA00924FF440710A2201206E
S315080076B00AF06EFA05B05DF804FB00BF020221214C
S315080076C01FB5094903460868097902AA02908DF888
S315080076D00C1000924FF44071002201200AF058FA6B
S315080076E005B05DF804FB00BFA53005081FB50949BC
S315080076F003460868097902AA02908DF80C100092D0
S315080077004FF44071062201200AF042FA05B05DF8EE
S3150800771004FB00BFA53005081FB5064A03460392B9
S3150800772003AA00920821002201200AF031FA05B0C6
S315080077305DF804FB010221211FB5074A034603929F
S3150800774003AA00924FF44071032201200AF020FA9E
S3150800775005B05DF804FB00BF010221211FB50949E8
S3150800776003460888897803AAADF80C008DF80E1030
S3150800777000920621422201200AF00AFA05B05DF8B5
S3150800778004FB00BFAB3005081FB503AA009205220B
S315080077900749034608888978ADF80C008DF80E105D
S315080077A0012011460AF0F4F905B05DF804FB00BFA4
S315080077B0AF3005081FB5084903460868097902AAC3
S315080077C002908DF80C1000920821022201200AF07E
S315080077D0DFF905B05DF804FBA53005081FB50949B2
S315080077E003460868097902AA02908DF80C100092DF
S315080077F04FF44071092201200AF0CAF905B05DF874
S3150800780004FB00BFB33005081FB50A4A03461068D3
S3150800781002A9029090889279ADF80C008DF80E2096
S3150800782000914C224FF4407101200AF0B1F905B0DD
S315080078305DF804FBB93005081FB509490346086811
S31508007840097902AA02908DF80C1000924FF4407143
S31508007850022201200AF09CF905B05DF804FB00BF7E
S31508007860C13005081FB5094903460868097902AAFF
S3150800787002908DF80C1000924FF4407105220120F9
S315080078800AF086F905B05DF804FB00BFC1300508AB
S315080078901FB5094903460888897803AAADF80C007C
S315080078A08DF80E1000920821062201200AF070F9C0
S315080078B005B05DF804FB00BFC73005080A46014954
S315080078C039F0D1BA1B4A05080A46014939F0CBBA3C
S315080078D0104A05080A46014939F0C5BA0B4A05088F
S315080078E00A46014939F0BFBA064A05080A46014957
S315080078F039F0B9BA014A05080A46014939F0B3BA56
S31508007900F44905080A46014939F0ADBAE5490508BA
S315080079100A46014939F0A7BAE04905080A46014965
S3150800792039F0A1BAD74905080A46014939F09BBA80
S31508007930CE4905080A46014939F095BAC5490508E8
S315080079400A46014939F08FBABE4905080A4601496F
S3150800795039F089BAB34905080A46014939F083BAA4
S31508007960A84905080A46014939F07DBA9D4905081E
S315080079700A46014939F077BA944905080A46014981
S3150800798039F071BA894905080A46014939F06BBACE
S31508007990864905080A46014939F065BA8349050842
S315080079A00A46014939F05FBA804905080A4601497D
S315080079B039F059BA7D4905080A46014939F053BADA
S315080079C07A4905080A46014939F04DBA7549050844
S315080079D00A46014939F047BA704905080A46014975
S315080079E039F041BA674905080A46014939F03BBAF0
S315080079F05C4905080A46014939F035BA5749050868
S31508007A000A46014939F02FBA524905080A4601497A
S31508007A1039F029BA4D4905080A46014939F023BA09
S31508007A20484905080A46014939F01DBA3D4905087D
S31508007A300A46014939F017BA324905080A46014982
S31508007A4039F011BA2B4905080A46014939F00BBA2B
S31508007A50284905080A46014939F005BA254905089D
S31508007A600A46014939F0FFB91A4905080A46014983
S31508007A7039F0F9B9154905080A46014939F0F3B943
S31508007A800C4905080A46014939F0EDB903490508C4
S31508007A900A46014939F0E7B9FE4805080A46014988
S31508007AA039F0E1B9F348050813B5012000F058F894
S31508007AB00446012000F082F8F4B9154C15492068EF
S31508007AC03BF029FA144920683BF025FA39F0B1FC55
S31508007AD039F0B0FC114B124A00931249382320683A
S31508007AE03BF019FA1049114A20683BF014FA10497C
S31508007AF020683BF010FAFEE74021204639F069FD80
S31508007B00B0FA80F30B4A5B09137002B010BD00BFD0
S31508007B10782100207B580508224A0508C34A05082B
S31508007B20274A05086F4A05088E4A05087B4A05084C
S31508007B30A64A05081D540020084B70B51B78044654
S31508007B400D464BB1012000F00BF82B462246BDE846
S31508007B507040402139F0F3BC112070BD1D5400203F
S31508007B60102808D8054B23FA00F010F0010003D0BE
S31508007B70034B186870470020704700BF16010100C4
S31508007B80C0100020012208B5074B1A700022074BC7
S31508007B901A700422064B1A701F22064B1A7005F03B
S31508007BA0B3FF054B186008BDDD1600201E540020E3
S31508007BB0DC160020DB16002078210020202808B5D6
S31508007BC013DC032804DC0138012806D90E200BE053
S31508007BD0094B0438C340DB07F8D5012304220921E1
S31508007BE0022002F0D5FD002008BD4028EED1012371
S31508007BF004220821F4E700BF1100001007B5082089
S31508007C0039F0CCFD02238DF80030054B6846019308
S31508007C1039F022FC082003B05DF804EB39F0C9BD41
S31508007C20006A18102DE9F041424D88B001AC0FCD1D
S31508007C300FC495E8070084E80700012401213A20CB
S31508007C4001F08EFB3C4E0121292001F089FB3B4BBC
S31508007C50304601A903938DF8124003F0A9FC234688
S31508007C6004220321022002F093FD0221224608463F
S31508007C70002302F08DFD234621460422022002F04D
S31508007C8087FD042200212346022002F081FD2C4DA7
S31508007C902C4B05F50058C5F834374FF00213C5F8D4
S31508007CA0303703F58033C5F838371C234FF448704E
S31508007CB0C5F8203708F0C6FC05F580571420C8F823
S31508007CC0A04008F0BFFC2320C7F8A04008F0BAFC83
S31508007CD0B9213046C8F8A04039F01FFF0023032118
S31508007CE01A460220C7F8A04002F052FD00230221DE
S31508007CF01A46084602F04CFD234621460022022079
S31508007D0002F046FD002223461146022002F040FDFD
S31508007D10304603F02BFC00212920C5F83417C5F896
S31508007D203017C5F83817C5F8201701F019FB08B041
S31508007D30BDE8F081D84A050800C0055000127A004F
S31508007D4000C00350020001000348044A0449121AFD
S31508007D50921039F056BC00BF480B0608480B0608B7
S31508007D60B85E002008B500F02FF8FFF7EDFF124BBC
S31508007D7012498B4212D30020114B12498B4218D359
S31508007D80FEF730FF186850F82240586840F822403D
S31508007D90013298688242F5D30C33EAE70022F8E705
S31508007DA01C6844F8220001325C68A242F8D3083302
S31508007DB0E4E70022F8E700BFB0020608BC0206089E
S31508007DC0BC020608BC0206084FF480414FF0FF309B
S31508007DD0114B124A10B59A60D3F8882042F4700203
S31508007DE0C3F888200E4A91660E4901F500521066BE
S31508007DF00D4850660220C3F8D000BFF34F8FBFF37B
S31508007E006F8F01244FF440330848C0F88041D3608F
S31508007E1004600B6110BD00BF00ED00E000600008C3
S31508007E200090005000800044F7FF370000E100E0B2
S31508007E30014B1868704700BFF0100020084B1B6FF5
S31508007E4003F00703022B04D0032B05D0012B05D022
S31508007E50FEE7044B18687047034BFBE70348704777
S31508007E6000800050F0100020F8100020002D31018D
S31508007E7008B5FFF7E3FF054B1B6FC3F30333013365
S31508007E80B0FBF3F0024B186008BD00BF008000503D
S31508007E90EC1000200048704700B4C404014B186871
S31508007EA0704700BFF8100020054B1860054B1B6F84
S31508007EB003F00703032B01D1FFF7DABF704700BFB2
S31508007EC0F81000200080005000487047002D31014E
S31508007ED04FF0B4439868C0F304400C280AD8DFE88A
S31508007EE000F00B0909090909072119091B1D1F00BB
S31508007EF00F487047002070479B6803F04073B3F142
S31508007F00807F11D0B3F1007F10D00A4A002B08BF3A
S31508007F101046704708487047084870470848704731
S31508007F200848704708487047084870470848704727
S31508007F30405DC60000093D00C0EA210180BA8C01F7
S31508007F400048E801005A62020024F40080841E00FA
S31508007F5040420F00014B1868704700BFF41000201C
S31508007F60BFF34F8F0549064BCA6802F4E062134314
S31508007F70CB60BFF34F8F00BFFDE700BF00ED00E009
S31508007F800400FA054FF000639B6A03F17842B2F5E4
S31508007F90C04F03D21968064A914203D000230370E2
S31508007FA083607047012202709A689B694260F7E70E
S31508007FB007B0CD5E73B54F4B04461A781AB1022244
S31508007FC01A7002B070BDCDE900220028F9D001264A
S31508007FD01E7039F09FFC484D484B18601EF0B2F9E8
S31508007FE02B785BB900F0F6FE40B945480823454AA8
S31508007FF0454900681AF014FC00B92E70434B5A6EB6
S3150800800062619B6E424AA3614FF480439366414B7B
S315080080105968E16140499960196E2160596E61603D
S31508008020D3F87011A160196CE160596C21613B4964
S31508008030086C1864496C5964012151661B6E9C04CE
S3150800804041D5374AD368D807FCD4364B1A68531C2F
S315080080503ED04FF480139340334A13664FF40073AF
S315080080600426314C2666236639F0FAFA01300DD01B
S3150800807039F0F6FA40F20113984207D04FF400534C
S3150800808023664FF480432366C4F870610823264CA0
S31508008090684623664FF4805323664FF000632366D1
S315080080A04FF4002301A9636639F0BEFA009B2366E4
S315080080B0019B63662B78002B83D0124B1A682266C5
S315080080C05B6863667DE7194AD368D907FCD4BCE7C1
S315080080D0174B1B78002BC1D14FF400720C4B5A6614
S315080080E003F5A6235B68002BB8D14FF480120E4B1C
S315080080F01A66B3E720540020215400209C21002052
S3150800810024110020A02100200071080000800050E2
S31508008110009000500080004455CEAC0000C00054CA
S3150800812000000440FC1000200090004400000450A9
S315080081301F54002070B5224D04462E78012E02D019
S3150800814001232B7070BD0028FCD039F089FA013064
S315080081500BD039F085FA40F20113984205D0194B35
S31508008160194A5E66D368DE07FCD42268174B1A667E
S3150800817062685A66A268C3F87021E2681A642269BE
S315080081805A64E269D00744BF00229A60104B1A6805
S31508008190013207D10F4A127822B90F494968C9072F
S315080081A048BF1A6062690D4B5A66A2699A661EF044
S315080081B0D1F80B4B186839F0B3FB0023C1E700BFB1
S315080081C02054002000900040000004400080004435
S315080081D0FC1000201F54002000C0055000800050ED
S315080081E09C21002070B54FF00064A36A03F1784221
S315080081F0B2F5C04F24D21A68134B9A4220D1134EB7
S31508008200337813F0FD0F02D00024204670BD1048C5
S31508008210FFF7D0FE01254FF480330E4A0E49C2F807
S315080082208051CB6015600D4A1361A36ADB699847D4
S3150800823004460748FFF77EFF002CE6D13570E3E7D2
S315080082404FF48174E1E700BF07B0CD5E1F540020EC
S315080082507C21002000E100E000A0004400900044DA
S3150800826013B5204B1B7803B9FEE700231E4CCDE956
S3150800827000336A4608231D4920681AF0D1FAF0B976
S315080082801B4AD2F84031D2F840211F2B4FF0010388
S3150800829010D9203A9340019A1A43019208236A4654
S315080082A0124920681AF072FA4FF00053114A1A6000
S315080082B0FFF756FE9340009A1A430092EEE70E4BDC
S315080082C09842F1D10A4AD2F84031D2F840211F2B00
S315080082D04FF0010385BF203A93409340019398BF1E
S315080082E00093DBE7205400202411002000710800C9
S315080082F0008000440B020FF00BE000F070B5D0B11F
S31508008300C9B10E4E431E013913F8014F2046325D9E
S3150800831002F00302012A11F8012F08BF04F1200018
S31508008320B55C05F00305012D08BF2032801A01D17E
S31508008330002CE9D170BD0120FCE700BFA5010608A5
S315080083400346054A0549106803448B428CBF4FF023
S31508008350FF301360704700BF0011002000000420A2
S3150800836010B40A6808461378022B10D0142130235B
S31508008370147913FB041307495B585179CB40DB4347
S3150800838003F0010313705DF8044B39F0E2B95DF8A8
S31508008390044B704730C00350F7B504680121054601
S315080083A03A2000F0DDFF002301226179207902F0EE
S315080083B0EFF914223023217913FB01231D4A99581A
S315080083C06379D940C943A37901F00101022B2170D1
S315080083D017D100F043FC184A2B466179207900F042
S315080083E067FCFF28024660790ED12A46124900F03A
S315080083F09BFC0123024661792079CDE9003302F01E
S315080084006DF9002003B0F0BD012627790023014647
S315080084100096384602F024FA2A460749607900F0A1
S3150800842083FC00236179024620790093019633463E
S31508008430E5E700BF30C0035061830008026813787F
S31508008440022B24D014213023107913FB0013104972
S315080084505B585179CB40917903F00103012912D178
S31508008460508843EA40034FF6E07063F03F039BB23F
S31508008470834202D11170538070474FF6DF718B42E9
S31508008480F9D10021F6E711B983F00103137070479B
S3150800849030C0035008B501213A2000F061FF0123DE
S315080084A004220321002002F073F9002039F09AFA19
S315080084B00122354B3549C3F844244FF40022A3F56D
S315080084C050335A66324BD3F8FC20D20146D4D1F841
S315080084D0803023F0030343F00203C1F880304FF4E1
S315080084E0607000F057FF2A4B00F5D520D3F8F0202E
S315080084F000F2FC4042F00102C3F8F020D3F8FC2059
S3150800850042F08072C3F8FC20224AA3F55D431A6044
S31508008510214B0222B0FBF3F0204B01381861C3F857
S31508008520F0204FF48072C3F804234FF060431C4ACE
S315080085300020C3F8B02F1B4AC3F8802ED3F8002EAC
S3150800854042F48072C3F8002EFF2283F82020D3F865
S31508008550002E22F48072C3F8002E08BDD3F8FC2042
S3150800856022F08072C3F8FC20D1F8802022F00302A2
S3150800857042F00202C1F88020D3F8FC2042F0807253
S31508008580C3F8FC20ABE700BF00D0035000800050C2
S3150800859000ED00E0FF030040F8590D00000004E07C
S315080085A055CEACC5090001004FF06043D3F8802EC4
S315080085B030B5D20715D501240B4D8440D5F8FC20DB
S315080085C042F08072C5F8FC20D3F8002E2243C3F887
S315080085D0002E53F82020002AF0D003F8201000209F
S315080085E030BD1120FCE700BF00ED00E02DE9FF419A
S315080085F003680446B3F1B64F55D0354A93424FD176
S315080086002F20012100F0ACFE01230A22617920798E
S3150800861002F0BEF801230A22E179A07902F0B8F83F
S315080086200A2701262B4D4FF030082379627908FB7B
S31508008630035306FA02F203F501531A60642008F0A0
S3150800864001F82379627908FB035306FA02F203F567
S31508008650825364201A6007F0F5FF013FE3D12068D2
S31508008660B0F1B64F21D10323C5F8E83462792379EE
S3150800867043EA0243C5F8EC34E279A37943EA0243B4
S31508008680C5F8F03440F20113ADF80030E3686946E6
S315080086900293A3680193237C8DF80C3002F03AF913
S315080086A004B0BDE8F0812E20ABE7094B9842E9D12A
S315080086B00323C5F8F8346279237943EA0243C5F8F7
S315080086C0FC34E279A37943EA0243C5F80035D9E7D1
S315080086D00080065000C0035038B5054602F048FA37
S315080086E0044C012801D1013C00D138BD284602F0CE
S315080086F033F9F6E7E193040010B5012243780178CF
S31508008700847830209A40054B00FB01331CB903F5E9
S3150800871001531A6010BD03F58253FAE700C00350EF
S3150800872010B5012243780178847830209A40054BA9
S3150800873000FB01331CB903F582531A6010BD03F51B
S315080087400153FAE700C003500122437801789A40A2
S3150800875030235943014B5A50704700BF40F003502D
S31508008760102130230246007813FB001305495B5895
S315080087705178CB4003F0010093780BB980F00100E3
S31508008780704700BF30C003502DE9F04F9A46564B4C
S3150800879085B01B7806460F461546DDF83C909DF8D1
S315080087A044B0DDF85080002B00F09780072A00F2CD
S315080087B096800E9B002B00F09280B9F1000F00F016
S315080087C08E80129BB3F5006F00F38980012803D1D0
S315080087D0109B002B00F08380444B03EB05131B7B97
S315080087E0002B7ED0424C10220021684644F095F9B1
S315080087F004EB45141022A7BB3946204644F08DF9F0
S3150800880043F210036380BBF1000F03D1E37843F012
S315080088100303E370364A0E9B02EB451CCCE9019331
S31508008820129B6901581E9DF84C30C0F30A0003F0EC
S3150800883003039B0643EA001E53582E48012E00EAFE
S3150800884003004EEA0003CDF800A0535017D0B8F144
S31508008850000F2ED19CF8023068F304138CF802300E
S3150800886027E00021204644F058F94FF4447363800A
S31508008870BBF1000FCED1E37843F03003C9E71323E9
S315080088800CF1100ECCF80C309CE80F008EE80F00A7
S315080088906FF00301DCF81C20109B61F39F02012F87
S315080088A0CCF81C20CCF8143003D1CCF81890CCF8AE
S315080088B0043000270D4A290102EB051342F801800E
S315080088C0159A28465A60694622469F605E7302F0EA
S315080088D057FD384605B0BDE8F08F0748FAE7074860
S315080088E0F8E70748F6E700BF22540020A822002030
S315080088F0A82100200F80FFF3028000F0018000F01D
S31508008900078000F038B5124B05461B78DBB1E0B19D
S3150800891039F000F80F4A00231146147B54B92B602E
S3150800892001251A0101EB03131D738C5038F0F8FF6B
S31508008930204638BD0133082B02F11002EDD138F07C
S31508008940EFFF0548F5E70548F3E70548F1E700BFF7
S3150800895022540020A8220020048000F0028000F0A3
S31508008960018000F038B538F0D5FF002305460B4ADC
S31508008970147B6CB90133082B02F11002F8D102F00E
S31508008980A1FC074B28461C7038F0CAFF204603E0B6
S31508008990284638F0C5FF034838BD00BFA822002086
S315080089A022540020058000F00D4B10B51B780446B4
S315080089B093B1072812D838F0ADFF0A4B03EB04131E
S315080089C01A7B2AB100241C7338F0AAFF204610BD72
S315080089D038F0A6FF0448FAE70448F8E70448F6E73B
S315080089E022540020A8220020068000F0028000F011
S315080089F0018000F0154B13B51868002301908DF817
S31508008A00043038F087FF124B1C7824B138F088FF01
S31508008A10104802B010BD01221A7038F081FF0E4BC3
S31508008A2001A81C731C7783F82C4083F83C4083F814
S31508008A304C4083F85C4083F86C4083F87C400823FC
S31508008A408DF8073002F06AFC2046E2E7444B050839
S31508008A5022540020038000F0A82200200A4A08B504
S31508008A6012785AB107280BD8084A02EB00131B7B69
S31508008A7043B1002102F044FC002008BD0448FCE78D
S31508008A800448FAE70448F8E722540020A822002000
S31508008A90028000F0018000F0078000F00A4A08B55D
S31508008AA012785AB107280BD8084A02EB00131B7B29
S31508008AB043B1012102F024FC002008BD0448FCE76C
S31508008AC00448FAE70448F8E722540020A8220020C0
S31508008AD0028000F0018000F0078000F00A4A08B51D
S31508008AE0127852B107280AD8084A02EB00131B7BF2
S31508008AF03BB102F091FC002008BD0548FCE705489B
S31508008B00FAE70548F8E700BF22540020A82200200B
S31508008B10028000F0018000F0078000F00D4B1B7802
S31508008B2093B1072812D889B10B4B03EB00131B7BB3
S31508008B3073B10A4B1A6D01238340134214BF0123F4
S31508008B40002300200B70704705487047054870479A
S31508008B500548704722540020A8220020000004502F
S31508008B60028000F0018000F0078000F00B4A10B583
S31508008B7012780C4662B107280CD859B1084A02EB9C
S31508008B8000131B7B43B102F059FC2070002010BD76
S31508008B900448FCE70448FAE70448F8E722540020AA
S31508008BA0A8220020028000F0018000F0078000F073
S31508008BB0184B2DE9F0411F6D5B6D1F4000D5FEE790
S31508008BC001260025144CDFF85880374218D0236850
S31508008BD0C8F85060A3B1A168284601316268A1604F
S31508008BE09847637B012B0BD150B90C4B03EB45130C
S31508008BF01A7B60F341021A731A7F60F341021A77EF
S31508008C000135082D4FEA460604F11004DDD1BDE80A
S31508008C10F08100BF00000450A8220020A8210020EF
S31508008C200020045070B5044601250B4E04B970BDEA
S31508008C3094FAA4F0B0FA80F005FA00F306EB0012F5
S31508008C4024EA03045368002BF0D0117B11B1916814
S31508008C509847EBE79847E9E72823002008B5192045
S31508008C6001F0C6F928B14FF00072074BC3F880210E
S31508008C701A601A2001F0BCF928B14FF08062024B45
S31508008C80C3F880211A6008BD00E100E038B5054642
S31508008C900C4638F03FFE0022044B03EB05135C60DC
S31508008CA01A73BDE8384038F03BBE00BF28230020C1
S31508008CB0F8B504460D4617461E4638F02BFE1CB975
S31508008CC0052D1AD0FF2421E0012C05D1012D21D034
S31508008CD0032DF7D1042410E0022C07D1052D1BD053
S31508008CE0072D1BD0002DEDD1062406E0032CE9D173
S31508008CF0022D15D0052DE5D10A240A4904F11003E1
S31508008D0001EB03110123C1E901760B7338F008FE64
S31508008D102046F8BD0324F0E70724EEE70824ECE72D
S31508008D200924EAE728230020F8B505460E46174623
S31508008D3038F0F0FD134B2C46D3F8242405F0FC013B
S31508008D4022FA05F3DB0712D500230133DBB2042B25
S31508008D5004D1FF2438F0E4FD2046F8BDEC1804F0F1
S31508008D6003040C4422FA04FC1CF0010FEDD1FF2C7D
S31508008D70F0D00122044B03EB0413C3E901671A730D
S31508008D80E8E700BF00C0035028230020074BD3F8AC
S31508008D902404D3F8202403F50053104000F055307E
S31508008DA020F05020C3F82004FFF73CBF00C0035052
S31508008DB0074BD3F82404D3F8202403F500531040B6
S31508008DC000F0AA3020F0A020C3F82004FFF72ABF3D
S31508008DD000C00350024B1968024B186819F0FCBB17
S31508008DE0041100202411002070B59400224605467F
S31508008DF00E4643F0B5FF431C0AD058B92246314601
S31508008E00284643F060FE0028034808BF002070BDCE
S31508008E100248FCE70248FAE710E000F021E000F01B
S31508008E2024E000F010B5044643F096FF431C10D02A
S31508008E3088B902F091FB234620F0030020449842AB
S31508008E4001D1002010BD53F8042B0132F7D0034896
S31508008E50F8E70348F6E70348F4E700BF0EE000F03A
S31508008E6021E000F024E000F008B538F044FD014B9D
S31508008E70186008BD182C0020014B186838F03FBD53
S31508008E80182C0020044BD3F88420D206FBD4D3F840
S31508008E908400C0F3811070470040005038B5104B6D
S31508008EA00546D3F880300C4603F00303022B0BD09B
S31508008EB0032B0DD0012B0FD1FEF7C0FF0E2305B1F2
S31508008EC0286004B1236038BDFFF702F80723F6E7E8
S31508008ED0FEF7AEFF0623F2E700231846EFE700BFCA
S31508008EE00080005038B5184B0546D3F820010C46CB
S31508008EF000F00700062823D8DFE800F0040A0E165B
S31508008F00121A1E00012305B1286004B1236038BD7A
S31508008F10FEF78EFF0523F6E7FEF7C0FF0323F2E709
S31508008F20FEF7D6FF0723EEE7FEF7CEFF0223EAE7B2
S31508008F30FEF77EFF0623E6E7FEF7B0FF0423E2E727
S31508008F4000231846DFE700BF0080005038B5174BEE
S31508008F500546D3F828310C4603F00703013B052BD9
S31508008F6020D8DFE803F003131B0F0B17FEF760FF8B
S31508008F70052305B1286004B1236038BDFEF758FF04
S31508008F800623F6E7FEF7A4FF0723F2E7FEF786FFB8
S31508008F900323EEE7FEF782FF0423EAE7FEF794FFD2
S31508008FA00223E6E700231846E3E700BF00800050E7
S31508008FB073B50D460021114B0191D3F88041064641
S31508008FC004F00304022C13D0032C0CD0012C13D16B
S31508008FD001A8FFF787FF10240EB1019B336005B186
S31508008FE02C6002B070BDFEF773FF07240190F3E70B
S31508008FF0FEF76AFF0190EFE70C46EDE700800050A8
S31508009000002337B50193164B0546D3F820320C4694
S3150800901003F00703042B21D8DFE803F0030B11162E
S315080090201B0001230DB1019A2A6004B1236003B025
S3150800903030BD002101A8FFF789FF1223F2E7FEF7EA
S3150800904047FF07230190EDE738F0E8FA0A23019075
S31508009050E8E7FEF77FFF09230190E3E70023E1E74E
S315080090600080005038B5104B0546D3F840310C4601
S3150800907003F00303022B0BD0032B0DD0012B0FD1CA
S3150800908038F0CCFA0A2305B1286004B1236038BD4C
S31508009090FEF760FF0923F6E738F0C3FA0C23F2E778
S315080090A001230020EFE700BF00800050002337B5FA
S315080090B00193164B0546D3F860320C4603F00703B6
S315080090C0013B032B1FD8DFE803F0020E1914002119
S315080090D001A8FFF707FF10230DB1019A2A6004B112
S315080090E0236003B030BD002101A8FFF7BBFF1123A1
S315080090F0F2E7FEF7EDFE07230190EDE7FEF7E4FE43
S3150800910002230190E8E70023E6E700BF008000504D
S31508009110002337B50193164B0546D3F894320C460F
S3150800912003F00703013B032B1FD8DFE803F0020E09
S315080091301914002101A8FFF7D5FE10230DB1019AD5
S315080091402A6004B1236003B030BD002101A8FFF7EF
S3150800915089FF1123F2E7FEF7BBFE07230190EDE72F
S31508009160FEF7B2FE02230190E8E70023E6E700BF18
S315080091700080005038B5144B0546D3F800020C465B
S3150800918000F0070004281BD8DFE800F003090D11DA
S315080091901500012305B1286004B1236038BD38F0F5
S315080091A03DFA0A23F6E7FEF7D5FE0923F2E738F07B
S315080091B038FA0C23EEE7FEF75BFE0F23800AE9E791
S315080091C000231846E6E700BF0080005038B5144B68
S315080091D00546D3F808020C4600F0070004281BD8F9
S315080091E0DFE800F003090D111500012305B1286019
S315080091F004B1236038BD38F011FA0A23F6E7FEF702
S31508009200A9FE0923F2E738F00CFA0C23EEE7FEF77D
S315080092102FFE0F23800AE9E700231846E6E700BF7A
S315080092200080005038B5104B0546D3F840320C463E
S3150800923003F00303022B0BD0032B0DD0012B0FD108
S3150800924038F0ECF90A2305B1286004B1236038BD6B
S31508009250FEF780FE0923F6E738F0E3F90C23F2E778
S3150800926001230020EFE700BF0080005038B5104BFF
S315080092700546D3F860310C4603F00303022B0BD0E6
S31508009280032B0DD0012B0FD138F0C8F90A2305B1ED
S31508009290286004B1236038BDFEF75CFE0923F6E7B3
S315080092A038F0BFF90C23F2E701230020EFE700BFEF
S315080092B000800050B0F5207F1FD009D8B0F5007F98
S315080092C015D003D868B1B0F5C07F0AD000200CE0ED
S315080092D0B0F5607FFAD10B4BD3F88000C0F30110CC
S315080092E003E0084B186FC0F3033001307047054B95
S315080092F0D3F89000C0F30460F7E7024B186FC0F389
S315080093008020F2E70080005002464FF48030104B70
S3150800931010B598660020FFF7CDFF504341F671322D
S315080093200C4BDC69DA635A6804F4803422F4401280
S3150800933059B90949884294BF002001200005024313
S315080093405A600CB10022DA6310BD0449F2E700BF87
S315080093500090005000000350005A6202002D3101AF
S31508009360430905D0012B0CD0022B084B18BF00234C
S3150800937000F01F0039B103F58053012282401A60BC
S315080093807047034BF4E703F50053F6E7688000508F
S31508009390648000501FB5002180280446CDE90011DD
S315080093A000F0A58035D85E2846D85E2844D8DFE880
S315080093B000F0A243434343434343434343434343A6
S315080093C0434343434343434343434343434343435F
S315080093D04343A2AAA2AABABABABABAAAC44DDA71B9
S315080093E04DAAAAAA4343434343434343AAAAAA7995
S315080093F0E4AA43434343434343434343434343BAB0
S31508009400A2A2A2DF4D4DE9885EBF43434343439979
S31508009410A200B0F5B06F00F090802DD8B0F5207F8F
S3150800942071D00CD8B0F5C07F65D0B0F5007F65D097
S31508009430B0F5807F00F08680009804B010BDB0F5C6
S31508009440607F6BD00DD8B0F5407FF5D1FEF710FDE3
S3150800945002464FF42070FFF72DFFB2FBF0F25208D8
S315080094605AE0B0F5806F5ED0B0F5A06FE4D1002168
S315080094706846FFF7C5FDDFE7B0F5106F78D016D858
S31508009480B0F5E06F79D00AD8B0F5C06F6BD0B0F5FB
S31508009490D06FD1D100216846FFF76CFECCE7B0F556
S315080094A0F06FC9D100216846FFF7E0FEC4E7B0F5C2
S315080094B0406F3DD013D8B0F5206F63D0B0F5286F54
S315080094C0BAD10021324B0391D3F8703203F003036B
S315080094D0012B02D103A8FFF7C5FD039B3CE0B0F5BD
S315080094E0486FA9D100216846FFF712FEA4E7FEF7E8
S315080094F0A5FC0090A0E7FEF7BBFCFAE7FEF79EFC8A
S315080095000246204604E0FEF7B3FC02464FF42070FC
S31508009510FFF7D0FEB2FBF0F200928DE701A8FFF745
S31508009520BDFC019AEDE700216846FFF7DBFC83E7FF
S3150800953000216846FFF70AFD7EE700216846FFF727
S3150800954037FD79E74FF0E02302911B695B0705D5E4
S31508009550FEF78EFC0290029B00936DE703A902A812
S31508009560FFF780FDF7E700216846FFF77BFD63E715
S3150800957000216846FFF72AFE5EE700216846FFF7E6
S3150800958051FE59E700216846FFF790FD54E700BFF2
S315080095900080005008B58020FFF7FCFE034B984278
S315080095A09EBF4FF48032024B1A6708BD005A62020A
S315080095B000A000501FB503460020B3F5807F019038
S315080095C000F0C18064D85D2B55D84C2B07D82D2BBD
S315080095D048D8232B2CD8019805B05DF804FB4D3BE1
S315080095E0102BF8D801A252F823F000BF3D970008C7
S315080095F0D7950008D7950008D7950008F396000870
S31508009600D7950008D7950008C19700081197000854
S31508009610B7960008B7970008D7950008D7950008A9
S31508009620D7950008D7950008D7950008CB97000866
S31508009630243B092BCFD801A252F823F03D97000806
S315080096403D9700083D9700083D9700083D9700089C
S31508009650D795000833970008D7950008D3960008D1
S31508009660739700083D2B7FD03E2BB4D1002001A96B
S31508009670FFF7D8FDAFE7802BADD1594B1B6F03F031
S315080096800703013B032BA6D8DFE803F0514E858D6F
S31508009690B3F5F06F68D021D8B3F5B06F49D00FD8BD
S315080096A0B3F5607F00F0838095D3B3F5806F45D01E
S315080096B0B3F5A06F8FD1002001A9FFF7A1FC8AE7B7
S315080096C0B3F5D06F55D0B3F5E06FCFD0B3F5C06F13
S315080096D081D1002001A9FFF7C5FC7CE7B3F5206F0F
S315080096E06ED00BD8B3F5086F48D0B3F5106F7FF47A
S315080096F072AF002001A9FFF769FD6CE7B3F5406F6B
S3150800970059D0B3F5486F60D0B3F5286F7FF463AFCF
S31508009710334BD3F8703203F00303012B5AD0022BD4
S315080097200CBF1523002300E00523019353E702230A
S31508009730FBE7002001A9FFF73BFC4CE7002001A945
S31508009740FFF7D0FB47E74FF0E02302901B695B0762
S3150800975005D5FEF78DFB0D230393039BE5E703A9C8
S3150800976002A8FFF77FFCF8E7002001A9FFF77EFDB6
S3150800977031E7002001A9FFF7FDFC2CE7184BD3F8C9
S31508009780003103F00303022B07D0032B09D0012B6A
S315080097900BD1FEF783FB0323C7E7FEF7DBFB0923A1
S315080097A0C3E737F039FF0823BFE70123BDE701A95F
S315080097B0FFF774FB0FE7002001A9FFF7C7FB0AE7CD
S315080097C0002001A9FFF772FC05E7002001A9FFF7B1
S315080097D09FFC00E7002103A8FFF744FC1123A4E738
S315080097E0008000504FF48012034B5A664FF48032C3
S315080097F0024B9A62704700BF009000500050005A12
S3150800980038B504468020FFF7D5FE032800F083808C
S315080098104FF48012524B4FF0A0615A6645F60E027D
S31508009820504BC3F88020504A91624FF4803102F5BC
S31508009830805291629A6DD203FCD4996D11F08041E1
S31508009840FBD1D4E90002120542EA0062E07B02433A
S31508009850207B42EA0042607B42EA0032A07B42EA71
S3150800986080121A619869D4E90452120642EA85629E
S3150800987000F000400243A07EE57E0243207E42EAD5
S315080098800042607E42EA00229A611A6AE06922F082
S315080098900F0242EA8502354D00283DD11A6294F836
S315080098A02420996A94F82000D200294042EA4012FE
S315080098B00A4394F8211042EA011242F480329A626D
S315080098C02B49284A936D31EA0303FBD14FF0807187
S315080098D0254881621369A56823F4700343EA055392
S315080098E013614FF00043836194F822300BB9214B82
S315080098F0996294F823303BB94FF480321D4B9A6233
S31508009900184A936D5B00FCD494F825301BB1154BAF
S31508009910194AC3F8802038BD024342F008020228DB
S315080099201A6208D119614FF40852996113484FF425
S315080099307F4137F0A9FF0B4994F822308A6A94F8D8
S3150800994020001B062A4043EA4013134394F82420B8
S3150800995043EAC20394F8232043EA02438B62D3E71F
S31508009960009000500040005A0050005AC7FFFEFE03
S31508009970030001000060005AF1A7FFFF3440005AB7
S31508009980014B93F900007047DE160020F0B5D0E9C8
S3150800999001434FF400061A4A4178057856664FF493
S315080099A0D156022702F5B8325662164E4F2977600D
S315080099B04FF0010728BF4F2106F5805677601669D4
S315080099C0F603FCD441EA052151611B01417B43EAB8
S315080099D004230B43017B43EA41039360C37B817BEA
S315080099E01B0143EA4113417C0B43017C43EA4103D3
S315080099F05360837C13B16FF4D1535362F0BD00BF3B
S31508009A000090005000100250014B1880704700BFAC
S31508009A103A160020014B1880704700BF3816002000
S31508009A20B0F5207F10B50C465DD008D8B0F5007F9C
S31508009A304ED003D8C0B1B0F5C07F15D010BDB0F573
S31508009A40607FFBD12C4B4C1ED3F8FC202B4912F01F
S31508009A50807F4FEA041427D1D1F8803023F03003F1
S31508009A602343C1F88030E9E737F01DFF37F029FFB7
S31508009A704FF48031224B214A1967136F013C23F4B6
S31508009A80704343EA04331367FEF7F2F90446FFF717
S31508009A90F9F9C0F10201204637F00DFF00F042F84F
S31508009AA0BDE81040FFF776BDD3F8FC2022F080729F
S31508009AB0C3F8FC20D1F8802022F030022243C1F8F6
S31508009AC08020D3F8FC2042F08072C3F8FC20B5E76A
S31508009AD00A4A4C1ED2F8903023F0F85343EA04633E
S31508009AE0C2F89030AAE7054A4C1E136F23F4806328
S31508009AF043EA84231367A1E700ED00E000800050E5
S31508009B000090005008B50121022000F0D9FA37F07C
S31508009B10CAFE37F0D6FE4FF48032014B1A6708BDED
S31508009B200090005008B54FF4C070FFF733FCBDE84D
S31508009B3008400449884294BF012102214FF420704D
S31508009B40FFF76EBF80F0FA02B0F5807FF8B50C46D5
S31508009B5000F053816BD85D285DD84C2804D82D2891
S31508009B6044D8232828D8F8BD4D381028FBD801A397
S31508009B7053F820F0DB9D0008679B0008679B0008E8
S31508009B80679B0008CB9C0008679B0008679B00083A
S31508009B90919F0008039D00085B9C0008719F0008C0
S31508009BA0679B0008679B0008679B0008679B00087F
S31508009BB0679B0008B19F000824380928D3D801A359
S31508009BC053F820F0DB9D0008DB9D0008DB9D0008AC
S31508009BD0DB9D0008DB9D0008679B0008BB9D00080D
S31508009BE0679B0008919C0008AB9E00083D2800F082
S31508009BF04C813E28B7D1093C032C8CBF0021B34BBE
S31508009C00B34A98BF195DD2F8403223F003030B43D9
S31508009C10C2F84032A7E78028A5D18B1E062B00F292
S31508009C20C980DFE803F0C4B2C77FC7C7C100B0F573
S31508009C30F06F00F02A813BD8B0F5B06F00F0BD8018
S31508009C401BD8B0F5607F00F06D818CD3B0F5806FBE
S31508009C5000F0C380B0F5A06F85D1073C0B2C8CBFF4
S31508009C6000219C4B9A4A98BF195DD2F8203223F0FE
S31508009C7007030B43C2F8203275E7B0F5D06F00F042
S31508009C801481B0F5E06FB6D0B0F5C06F7FF46BAF56
S31508009C90093C032C8CBF00218F4B8D4A98BF195D58
S31508009CA0D2F8403123F003030B43C2F840315AE798
S31508009CB0B0F5206F00F06C8117D8B0F5086F00F08A
S31508009CC02181B0F5106F7FF44EAF093C062C8CBF8E
S31508009CD00021824B7E4A98BF195DD2F8083223F0DC
S31508009CE007030B43C2F808323DE7B0F5406F00F0B2
S31508009CF03F81B0F5486F00F05B81B0F5286F7FF4BF
S31508009D0032AF112C00F06481A4F115035C425C416A
S31508009D1064006F4AD2F8703223F003032343C2F873
S31508009D20703220E7002502264FF4803701210220F1
S31508009D3000F0C6F937F0B7FD37F0C3FD684B644A43
S31508009D401F67136F23F0070333431367FEF790F873
S31508009D500646FFF797F8C0F10201304637F0ABFD2B
S31508009D600121002000F0ECF9FFF7DCFEFFF712FCFA
S31508009D70002D7FF4F8AE032C7FF4F5AE594B5A4A02
S31508009D809F62936D5C00FCD4EDE64FF48012544B51
S31508009D900E465A664FF48032534B9D6A03F580533C
S31508009DA0C5F300659A62BFE700250426BCE70025CF
S31508009DB00126B9E700252E46B6E7023C0E2C8CBFD5
S31508009DC000214A4B424A98BF195DD2F8803123F0E8
S31508009DD003030B43C2F88031C5E6023C052C8CBF51
S31508009DE00021434B3A4A98BF195DD2F8203123F037
S31508009DF007030B43C2F82031B5E6A1F10904082C84
S31508009E003FF6B1AE01A353F824F000BF319E000817
S31508009E10319E0008679B0008319E00085F9E000877
S31508009E20679B0008679B0008679B0008319E00082F
S31508009E304FF48032264B2F49586E03F580535A66E5
S31508009E404B6AC00343F001034B625CBF2A4B5A6658
S31508009E504FF0E022136923F00403136183E64FF4FD
S31508009E6080321B4B2349586E03F580535A664B6A5A
S31508009E7023F001034B62C1035CBF1F4B5A664FF0C8
S31508009E80E022136943F00403E7E7093C032C8CBF7F
S31508009E9000211A4B0E4A98BF195DD2F8603123F09B
S31508009EA003030B43C2F860315DE6093C062C8CBF00
S31508009EB00021134B064A98BF195DD2F8003223F0E9
S31508009EC007030B43C2F800324DE600BF9C4B05085A
S31508009ED000800050794B05089C4B0508954B0508F2
S31508009EE0009000500060005A0040005AA64B050832
S31508009EF0A04B050800C0075000A000509C4B050861
S31508009F00954B0508CC1E062C8CBF0021314B324AD6
S31508009F1098BF195DD2F8003123F003030B43C2F84A
S31508009F20003120E62D49063CD1F8FC2012F080725B
S31508009F301EBFD1F8FC3023F08073C1F8FC30082C22
S31508009F408CBF0020264B244998BF185DD1F8803075
S31508009F5023F003030343C1F88030002A3FF403AE1D
S31508009F601E4AD2F8FC3043F08073C2F8FC30FAE59A
S31508009F70023C052C8CBF00211A4B174A98BF195D65
S31508009F80D2F8283123F007030B43C2F82831EAE553
S31508009F90023C0F2C8CBF0021134B0F4A98BF195D4A
S31508009FA0D2F8603223F007030B43C2F86032DAE5D1
S31508009FB0023C0F2C8CBF00210C4B074A98BF195D39
S31508009FC0D2F8943223F007030B43C2F89432CAE559
S31508009FD001249EE68E4B05080080005000ED00E047
S31508009FE0854B0508A04B0508694B0508694B05080C
S31508009FF0054B420953F8223000F01F0023FA00F0FF
S3150800A000C04300F00100704700E100E0024A536BCC
S3150800A0100342FCD1704700BF00400950044A41780A
S3150800A020536F23F4407343EA01235367704700BF15
S3150800A030004000500C4A10B51369044643F0040367
S3150800A040136105F0F9FA37F06EFC084B084AC3F8B5
S3150800A050202430BF37F068FC05F028FB1CB9BDE8A2
S3150800A0601040FDF705BF10BD00ED00E000E003500D
S3150800A0700000FF0F0A4A10B51369044643F00403AB
S3150800A0801361084B084AC3F8202405F0D5FA30BFF7
S3150800A09005F00CFB1CB9BDE81040FDF7E9BE10BD84
S3150800A0A000ED00E000E003500000FF0F034A0179CD
S3150800A0B0D36E23F030030B43D3667047004000503D
S3150800A0C0F8B504461C4BD3F88420D106FBD4D3F844
S3150800A0D08430C3F381139C422CD0FDF7AFFE012CCC
S3150800A0E0064602D1214637F0E6FB37F004FC4FF06E
S3150800A0F00072124B07465A66204637F018FC4FF492
S3150800A10080630D4D621E93402B676B6E9A0103D4D4
S3150800A110D5F884309B060AD5384637F0F0FB022C72
S3150800A12008D13046BDE8F840002137F0C4BBD5F861
S3150800A1308430EAE7F8BD00BF0040005000600050D8
S3150800A14010B50C4608B9FDF779FE074B21461B7872
S3150800A1503BB1064B984204D80120BDE81040FFF7F2
S3150800A160AFBF0220F9E700BF23540020005A62025D
S3150800A1700278034B012100201A70FFF7E1BF00BFE8
S3150800A180235400204FF0004238B5244B244C5A661D
S3150800A1904AF6CD33656C014605F00105236428BBF4
S3150800A1A00120FFF733FF6368DB0715D51D4B5860A1
S3150800A1B008461D4B226BD2070CD4984208D10724B7
S3150800A1C015B1174B194A1A643EF050FD204638BDA2
S3150800A1D00130EFE79842F2D00024F1E70132236B11
S3150800A1E013F0080305D08A42F8D1E8E700220E49A1
S3150800A1F0F5E78A42E3D020210A4A91620121A2F5B5
S3150800A200805251600649084A886A800603D49342F8
S3150800A210D5D00133F8E79342DDE700BF0090005040
S3150800A220004009500060095040420F003254FFFFB9
S3150800A2304FF0004238B5164B01465A664AF6CD33FA
S3150800A240144C154A656C236443780B205B0043F075
S3150800A2500103D363FFF7DAFE63688A7823F4F87399
S3150800A26043EA02136360CA784B7943EA0223A36080
S3150800A2700A798B7943EA022323610878FFF782FF7C
S3150800A280EB0744BF054B23643EF0F0FC012038BDC4
S3150800A2900090005000400950004000503254FFFF23
S3150800A2A04FF00042124B70B55D6E03F580535A6647
S3150800A2B04AF6CD3304460F4980204E6C0B64FFF7EF
S3150800A2C0A5FE0B6A23F00F030F2C94BF234343F01C
S3150800A2D00F030B62F30744BF074B0B64002DA2BFA5
S3150800A2E04FF00042054B5A663EF0C0FC70BD00BFF9
S3150800A2F000800050004009503254FFFF00A0005073
S3150800A3004FF00042104B70B55D6E03F580535A66E8
S3150800A3104AF6CD3304460D4980204E6C0B64FFF790
S3150800A32075FE0B6A23F4F85343EA04230B62F3071A
S3150800A33044BF074B0B64002DA2BF4FF00042054BEC
S3150800A3405A663EF093FC70BD0080005000400950EC
S3150800A3503254FFFF00A0005010B537F0EDFA042381
S3150800A36000F5805100F500520B6113610B61136112
S3150800A3700B6113610B611361202341F20201036132
S3150800A3800023C360836041614FF4A0218361836524
S3150800A39041620549C36103628362C362436303651D
S3150800A3A0D164036310BD00BFFF3F0D0370B50546BA
S3150800A3B01446084641B9354B9D4218D0344B9D4248
S3150800A3C008BF5720FEF7E6FFAB6813F0010F6B686E
S3150800A3D030D0B0FBF4F4D80704F1FF344FEA046434
S3150800A3E007D42B6923F07F4323432B6170BD562086
S3150800A3F0E8E72821284637F09BFAAB6C990715D170
S3150800A400AB6CDA0714D4AB6C13F0020F14BF062634
S3150800A4100026284637F090FA2B69314623F07F4309
S3150800A42023432B61BDE8704037F0BDBA0526F0E737
S3150800A4300926EEE7AB6DDB07AB6848BF640003F09F
S3150800A440E003402B1BD004D8DBB1202BCED1082348
S3150800A45004E0602B17D0802BC8D101236343410148
S3150800A460B1FBF3F20B4B203A284603EAC20201215C
S3150800A47037F05EFA2A63BDE8704037F059BA06230A
S3150800A480ECE71023EAE70423E8E700BF0000015BD6
S3150800A49000000A50F8FF7F002DE9F8439846436804
S3150800A4A004460E4617461BB140F6FF7137F040FAD0
S3150800A4B02046FFF751FFF189737B62690B43318AA6
S3150800A4C022F44C520B4322F00F0213436361A26835
S3150800A4D0317E337B22F0804222F0E2020B431343A3
S3150800A4E07269D6F808901343A360B9F1000F03D137
S3150800A4F0A36843F00043A360F069002874D0857A06
S3150800A500037A6D04A26845EA83556D4B13401D43D3
S3150800A510838803F4C0431D43437845EA8305437B98
S3150800A52045EAC305837B45EA0315837845EA83250F
S3150800A530A560D0E90432E5681343624A2A4013430A
S3150800A540827943EA8223C27943EA4223E3600378A5
S3150800A5505D4A012B14D1E36843F00403E360944297
S3150800A56000F09280594B9C420CBF01234FF0FF33F9
S3150800A5705B0103F1A04342F2944203F5703314E001
S3150800A580032B7BD1E36843F00403E360944279D05C
S3150800A5904E4B9C420CBF01234FF0FF3341F29442CD
S3150800A5A05B0103F1A04303F5703302259D50437AFE
S3150800A5B004F5805293621BB1E36843F40063E360D9
S3150800A5C0C37A5BB1E36843F40043E3603E4B9C42C5
S3150800A5D05CD1037B3E4A03F00F035367636AC27B71
S3150800A5E023F00303134363623FB197F8203004F561
S3150800A5F08050002B54D001230362B8F1000F27D0F6
S3150800A60004F5805011B14FF4004383652E4BB8F81A
S3150800A61022109C4298F821304FD02C4A94420DD1F2
S3150800A6200122112B34BF012702272A4DB1F5006FED
S3150800A630AF5494BF01270227274DAF54A26D0B4391
S3150800A64022F4F95222F01E021343A36501238365FF
S3150800A6500521204637F08AF9B9F1000F03D04A469A
S3150800A6607168FFF7A3FE2046317837F09CF9A36C92
S3150800A670DB4313F4405FFAD1BDE8F883023B012BB4
S3150800A68084D96CE7002389E7002371E70F4B9C42C6
S3150800A69001BF037B0E4A03F00F03C2F880309DE723
S3150800A6A0E26997F8223097F8215022F009022B43E5
S3150800A6B0134343F00103C3619FE70022B1E700BFDC
S3150800A6C0E39BBDFFFFF9F0870000015B00000A501D
S3150800A6D0009003502654002024540020072A2DE910
S3150800A6E0F041154698464FF0030401F003072DD8AC
S3150800A6F09600B44000FA06F221461C4837F063F982
S3150800A70021461B4807FA06F237F05DF9194B1A4934
S3150800A7109DF81800B8F1000F18BF1946012303FA6F
S3150800A72005F50D60154B1649002818BF0B461D6028
S3150800A730144B9DF81C00C3F82054103103F224432F
S3150800A740002818BF0B461D60BDE8F081A2F1080677
S3150800A750B600B44000FA06F221460B4837F033F942
S3150800A76021460A4807FA06F2CEE700BF00C403509E
S3150800A77008C4035010D4035010E4035014E40350E3
S3150800A78014D4035000E0035004C403500CC403500F
S3150800A7902DE9F04105460F461E4690464AB101236B
S3150800A7A03022194C8B4002FB004436B304F5825420
S3150800A7B023600F21072F05EB450388BFA7F108047F
S3150800A7C04FEA0313114895BFBC00A40004330C33A9
S3150800A7D008FA04F2A140184437F0F5F8B8F1000F6A
S3150800A7E009D101233021084ABB4001FB05223EB1AD
S3150800A7F002F582521360BDE8F08104F50154D7E7EB
S3150800A80002F50152F6E700BF00C0035030C00350FE
S3150800A810104B0140D3F8302422EA0002C3F8302452
S3150800A820D3F830241143C3F83014D3F82C24024348
S3150800A830C3F82C24084AD36E03F03003202B1FBF1D
S3150800A840D36E23F0300343F01003D366034BC3F8EB
S3150800A8502004704700C003500040005000E0035039
S3150800A86038B514461D46032283F00103FFF790FF0F
S3150800A870012004F11001884005FA01F1FFF7C8FF2D
S3150800A8809DF81010034B044A002918BF1346186098
S3150800A89038BD00BF24E4035024D40350F8B5054658
S3150800A8A00E4614465AB303F00307836823F440732D
S3150800A8B0836037F020F8AA6882EA072303F4407316
S3150800A8C05340AB6037F01BF836B9B5F1B64F17D120
S3150800A8D02E20FEF75FFD0646AB680C4BDA5D624339
S3150800A8E00DD0A2EBC403013B3344B3FBF2F3AA68D1
S3150800A8F0013B920702D5002B08BF0123AB61F8BDC7
S3150800A900034B9D42E8D12F20E3E700BFB54B05086E
S3150800A9100080065038B500230E4A036400F500533C
S3150800A920DA634A7804460D4600F108037AB903F556
S3150800A930805302221A602046D5E901122B7BFFF7C5
S3150800A940ADFF20462978BDE8384037F04CB803F506
S3150800A9500053EEE7FFFF1F00B0F1B64F70B519D0F0
S3150800A960804B984240F0FA807F4B9968C26B12F48C
S3150800A970C06F15D091050FD5FD225A7009221A709D
S3150800A9800022026493F90110012900D15A7093F943
S3150800A990010070BD754BE8E75605EFD5FE22ECE7DA
S3150800A9A01C78082C00F2D680DFE814F009001F0096
S3150800A9B04500530070007E009C00A700CB004C8821
S3150800A9C00A88E5060AD5120A02F0060242F0F002E3
S3150800A9D0012119704263C1600120DAE702F0FE0224
S3150800A9E0A10748BF42F00102F2E7160608D5802102
S3150800A9F000F50052D1634FF608721A80022318E058
S3150800AA005506E9D5402400F50052D4634A88D40691
S3150800AA1004D502221A700B784363DDE796076AD5D8
S3150800AA2007221A701B7901EBC3031B89012BD3D1AB
S3150800AA300823C360D0E71506D9D45406CCD54024DC
S3150800AA4000F50052D4634A88920754D503221A7037
S3150800AA508CE74C880A88E60643BF120A02F006020B
S3150800AA6042F0F00202F0FE02650709D51C7942F0B1
S3150800AA70010201EBC4010989012904BF0821C1604B
S3150800AA80042119700123C3604263A5E71406AED4F6
S3150800AA905206A1D5402400F50052D4634A885607C9
S3150800AAA029D507221A7097E71A795D8801EBC2043F
S3150800AAB02689AE420FD800240132D2B21A715C80C0
S3150800AAC04C886507C2D4E40702D4012A7FF64EAF44
S3150800AAD008221A7092E76268691C5980525D4263BF
S3150800AAE00622DFE7160682D455067FF575AF4024A1
S3150800AAF000F50052D4630522A9E794067FF56CAFEA
S3150800AB0020261A7900F5005401EBC2010A89456A24
S3150800AB10E6635C88A24281BF4968661C5E800D5563
S3150800AB2059888A42D4D90424012AC46004D0013A37
S3150800AB30914201D10822C2601A78092A3FF420AF4F
S3150800AB404AE7D2057FF548AF4FF4807100F5005209
S3150800AB50D16313E74FF609321A8011E76FF0030045
S3150800AB6017E700BF00800650282C00201C2C002068
S3150800AB70B0F1B64F10B407D01A4B98422ED06FF0EA
S3150800AB8003005DF8044B7047174B0269D20744BFB0
S3150800AB902022C2604A88940702D50C89002CEED080
S3150800ABA0520702D50A8A002AE9D04FF480721A6041
S3150800ABB0002299601A71C023C3604369DB050FD46C
S3150800ABC0202200F50053DA63084A5DF8044BDA637D
S3150800ABD0036C43F4FC630364FFF7BEBE044BD4E77F
S3150800ABE0436AEAE7008006501C2C0020FFFF1F007E
S3150800ABF0282C00204369DA01FCD4012300F5005013
S3150800AC00024A436053689B07FCD4704700400059CA
S3150800AC1070B504461546FFF7EDFF0B784A7803F042
S3150800AC20070343EAC203CA7843EA02238A78120171
S3150800AC3002F070021343C4F88030E26A0B7922F0FE
S3150800AC40170203F0070313434A79120102F01002B0
S3150800AC501343E3621E4B2A469C4225D0012004F585
S3150800AC60805358601A4B00229C422AD08B79A261E5
S3150800AC7053BB70BD12F8023C12F8040C5B0443EA9D
S3150800AC80002312F8050C034312F8030C000400F421
S3150800AC908030034306F1280044F820300136102E90
S3150800ACA002F10502E6D1D9E70026F8E703EB8306A9
S3150800ACB0AE5D16B100FA03F632430133102BF5D117
S3150800ACC0D4E713460435F9E70823E360D1E700BF64
S3150800ACD000400059084608B569B92A20FEF75AFB0C
S3150800ACE0B0B10C4B984206D90B4B9B68C3F3027361
S3150800ACF00133B0FBF3F0094B00F5742000F23F2056
S3150800AD00B0FBF3F001387F2828BF7F20C0B208BD0A
S3150800AD100120F0E7005A62020040005940420F0045
S3150800AD200B4B10B5994228BF19460C461AB92A206A
S3150800AD30FEF730FB0246631E1344B3FBF4F0A3424E
S3150800AD4028BF00F1FF30032828BF0320C0B210BD7A
S3150800AD50005A620210B50C46FBB111491148012B85
S3150800AD6008BF01468C4228BF0C461AB92A20FEF7AE
S3150800AD7011FB02469DF8083040F2FF300133B2FB62
S3150800AD80F3F2631E1A44B2FBF4F3A24228BF03F19E
S3150800AD90FF33984228BF184610BD0349E2E700BFB3
S3150800ADA0404B4C00002D31018096980013B504469F
S3150800ADB001A800F0ABFB042C8EBF0020024B33F831
S3150800ADC0140002B010BD00BFBA4B05082DE9F04FBC
S3150800ADD02DED048B06468DB0DFF85CC306AF0C4636
S3150800ADE01546BCE80F000FC79CE8030087E8030078
S3150800ADF0C74F002239463046FFF792FF94F8058080
S3150800AE00804538BF80463046FFF7F4FE20795FFA62
S3150800AE1088F850B92A20FEF7BDFAB842014628BF7D
S3150800AE20B0FBF8F13046FFF755FFE3784FEA0872B2
S3150800AE301B0102F0E04203F03003134300042278BA
S3150800AE4000F4FE0003430AB143F0020362780AB134
S3150800AE5043F00403A2780AB143F00803B360E38819
S3150800AE6022893361638943EA02433362A94B9E42CE
S3150800AE7000F01D82012306F5805673600DB0BDEC07
S3150800AE80048BBDE8F08FA44920E0D1F88041012B5E
S3150800AE904FEA144440F29680022B00F071813F017C
S3150800AEA007F1B247C9F3090307F580477B600AF142
S3150800AEB0010A1435BAF1020FDCD02B78AF68002BE3
S3150800AEC0E1D09649964A012B18BF1146914C0022AB
S3150800AED02046CDF800800393FFF73CFF04EB0A14E5
S3150800AEE0A16C039B21F0435121F41D1121F4435118
S3150800AEF01FFA87F921F03F0103F003070F4369782A
S3150800AF0081454FEA810101F01C0147EA0107A9784A
S3150800AF1038BF81464901C9B20F43E9782879090340
S3150800AF2001F4E0413943070407F4E02739432F7C4D
S3150800AF304FEA0A1B7F0507F4600739436F793F0715
S3150800AF4007F040573943A164A46C7649C4F3023428
S3150800AF50013C0AF10507042C2BD80FF2080C5CF803
S3150800AF6024F000BFB3AF0008B3AF00088BAE0008EB
S3150800AF7079AF000893AF0008D1F88441012BA4B239
S3150800AF808AD8002B40F09880D1F88C110914490012
S3150800AF901DE0D1F88441012B4FEA14443FF67CAFFB
S3150800AFA0002B40F08C80D1F88C11091401EB41017B
S3150800AFB00DE0D1F88041012BA4B23FF66DAFDFED6D
S3150800AFC0637A08E0002B74D1D1F88C11091407EEC6
S3150800AFD0901AF8EEE77A22040BF1B24202F58042A3
S3150800AFE0926C24F4C041C2F3820C4FF001020CF1BA
S3150800AFF0010E02FA0EF209EE102A4FEA8141B8EE66
S3150800B000C99AF6EE008A474A48BF41F00041BCF1AA
S3150800B010000F5AD1002B55D1D2F88C311BB207EE4E
S3150800B020103AB8EEC77A37EE878A002840F0908043
S3150800B03005A8039100F06AFADFED3B7A68EE277AF5
S3150800B0400399DFED3A6A86EE897ADFED396A27EEEB
S3150800B050267AF1EE006AB1F1004F07EEA67A0BD018
S3150800B060DFED347A06EE104A77EE276ABAEEE86A1A
S3150800B07056EE267AB0EE677AB5EEC07AF1EE10FA99
S3150800B080CBBFB1EE477A78EEC78A37EE687AFDEE1F
S3150800B090E87AC8BFFDEEC77A17EE903AB3F5003FD7
S3150800B0A065DB6FEA51416FEA41411A4A3B01D150CB
S3150800B0B0F5E6D1F8941189E7D1F8941166E7D1F845
S3150800B0C0941172E7D2F89431A8E7ABB9D2F8903167
S3150800B0D01BB207EE103AB8EEC77A77EE677A69EED2
S3150800B0E0286A104B87EEA67AD3F888311BB207EE8A
S3150800B0F0903AF8EEE77A96E7D2F898311BB207EE5F
S3150800B100103AB8EEC77A37EE677A77EE877AE6E7C7
S3150800B110005A62020040005980969800002D3101BD
S3150800B120404B4C000080E00F3D3B843F00008043CD
S3150800B1300000204400000049C44B050800007A447A
S3150800B14000000038E71B753F0000004700000000BC
S3150800B150D5ED037A5FED076AF8EE677A87EEA67A89
S3150800B160F7EE046AC6EE877A67EE887A69E713F51A
S3150800B170003FAABFC3F3110341F40031194394E712
S3150800B180FFF714FE07EE900A1FED147AF8EE677AB9
S3150800B1900BF1B24303F580439B6C0CAAC3F342132D
S3150800B1A002EB830387EE875A13ED067AFCEEC77A1D
S3150800B1B017EE903AF7EE006A5C2B1CBF77EE267AFC
S3150800B1C087EE276A07EE904A5FED235AF8EE677A0C
S3150800B1D008BF1FED246A67EEA57A67EE867A1FED2B
S3150800B1E0266A67EE867AF5EEC07AB6EE006AF1EE62
S3150800B1F010FA4CBF77EEC67A77EE867A0BF1B24232
S3150800B20002F58042136DFDEEE77A0023136517EE0B
S3150800B210903A17EE900A13F4004F136D5FED354A16
S3150800B22018BF43F000431365224B116D03EA8043B0
S3150800B2300B431365204B9FED214AD3F88811D3F8A9
S3150800B2408831116D1BB207EE903AF8EEE77A77EE81
S3150800B250A47AC4EE074A37EE267AC4EE876AF7EE72
S3150800B260044A84EE857A67EE277AB1EE007A47EECD
S3150800B270876A07EE104ADFED127AB8EEC77A76EEDD
S3150800B280A76A65EEC75A46EEA57AF5EEC07AF1EEDC
S3150800B29010FA4CBF77EEC67A77EE867AFDEEE77A35
S3150800B2A017EE903AC3F311030B431365F7E54FF016
S3150800B2B0000AFFE50000FC7F0080E00F00008048E0
S3150800B2C0000000494FF400120B4B10B5C3F880205C
S3150800B2D0BFF34F8FBFF36F8F0024FF22074B214622
S3150800B2E05C6520209A625C60FEF73AF82146BDE864
S3150800B2F010402120FEF734B800E100E000000450B9
S3150800B300044A054B002908BF1346012282401A60E9
S3150800B310704700BF401004504020045010B501216A
S3150800B32004462020FEF71CF801212120FEF718F814
S3150800B3300122114B5A60227812069A606178A27827
S3150800B34042EA01429A61FF229A6200229A631A64CB
S3150800B3504FF000425A654FF0FF324FF4001103F5E3
S3150800B36000531A65054AC2F88011E3781B01DBB25F
S3150800B37082F81533116010BD0000045000E100E0AA
S3150800B380F8B50125C3B2D1F800E091F80AC00F7BE1
S3150800B3900C469D40CB7A1D491D4E0D65810001F175
S3150800B3A0A04101F58821C1F804E04FF0300E0EFBEC
S3150800B3B000601B05617B43EA0C4343EA475322F0CE
S3150800B3C003020166C365026736F0A4FA736D2B4360
S3150800B3D07365237A13B1336C2B433364637A13B1E1
S3150800B3E0B36B2B43B3632279A37943EA0243074A33
S3150800B3F093616179E37943EA014306498B61044B1A
S3150800B40055639D64BDE8F84036F08ABA00200450BA
S3150800B410000004500010045010B50124C0B2844046
S3150800B42036F078FA044B5A6D22EA04025A659C6291
S3150800B430BDE8104036F074BA0000045010B5012477
S3150800B440C0B2844036F066FA074BDA6A224208D15F
S3150800B4505B6B9C430CBF0124002436F061FA20463E
S3150800B46010BD0024F9E700BF000004504FF48032F5
S3150800B470054B9A6641F6713203F51C33DA630122ED
S3150800B48003F50053DA6070470090005041F67132B8
S3150800B4900121064BDA6303F50052D1600022DA6314
S3150800B4A04FF48032A3F518339A66704700000350AC
S3150800B4B0013831289ABF024B185C0020704700BF3C
S3150800B4C0DC4B050838B5C2F30625044602F0070228
S3150800B4D041B942EA052242F440220634074B43F8B2
S3150800B4E0242038BD1146284636F0AAFA02462846D0
S3150800B4F0FFF7DEFF163442EA0022EFE7008003502A
S3150800B500014BD3F894007047004000504FF4803246
